:100000000C94F3000C941B010C941B010C941B0129
:100010000C941B010C941B010C941B010C941B01F0
:100020000C941B010C941B010C94540F0C94C30FE3
:100030000C941B010C941B010C941B010C941B01D0
:100040000C941B010C941B010C941B010C941B01C0
:100050000C941B010C941B010C941B010C940A0FB3
:100060000C941B010C941B010C941B010C941B01A0
:100070000C941B010C941B010C941B010C941B0190
:100080000C941B010C941B010C941B010C941B0180
:100090000C941B010C941B010C941B010C941B0170
:1000A0000C941B010C941B010C941B01076342363A
:1000B000B79BD8A71A39685618AEBAAB558C1D3CF9
:1000C000B7CC5763BD6DEDFD753EF6177231BF00BD
:1000D0000000803F08000000BE922449123EABAAF7
:1000E000AA2ABECDCCCC4C3E00000080BEABAAAA52
:1000F000AA3E00000000BF000000803F000000009A
:1001000000084178D3BB4387D1133D190E3CC3BDD2
:100110004282AD2B3E68EC8276BED98FE1A93E4C7F
:1001200080EFFFBE01C4FF7F3F00000000004E4192
:100130004E494E495459494E46CDCCCC3D0AD72361
:100140003C17B7D13877CC2B329595E6241FB14FA9
:100150000A000020410000C84200401C4620BCBEEE
:100160004CCA1B0E5AAEC59D74080B000202020059
:10017000000904000001020200000524001001052E
:10018000240101010424020605240600010705815B
:100190000310004009040100020A000000070502E4
:1001A0000240000007058302400000040309041216
:1001B000010002EF0201404F1B0692000101020301
:1001C00001537061726B46756E00454C56494E2066
:1001D0004B4F4E544F4C00070605040100080A0B14
:1001E0000C0D0900F51111241FBECFEFDAE0DEBFC0
:1001F000CDBF15E0A0E0B1E0E8EDFBE302C0059063
:100200000D92AC35B107D9F727E0ACE5B5E001C0F8
:100210001D92A531B207E1F710E0C3EFD0E004C0B2
:100220002197FE010E94AD1CC23FD107C9F70E9471
:10023000DE130C94EA1D0C940000E7EDF1E0E4916C
:1002400090917B008E2F880F880F80729F7D892B65
:1002500080937B008091140120E4829FC0011124CF
:10026000E770E82BE0937C0080917A0080648093B3
:100270007A0080917A0086FDFCCF80917800909181
:10028000790008954F925F926F927F928F929F9222
:10029000AF92BF92CF92DF92EF92FF920F931F9394
:1002A000CF93DF93E5010C151D052E053F050CF0DE
:1002B00051C02801390146015701882309F44FC074
:1002C000CA01DB0184159505A605B70514F4D30111
:1002D000C201B501A40188159905AA05BB0514F44E
:1002E000AC01BD01C016D106E206F30664F4D501E7
:1002F000C401841B950BA60BB70BAC01BD01440DCB
:10030000551D661D771D9A01AB0124193509460953
:100310005709AFEFBFEF0E946E19A5019401241990
:100320003509460957090E944F192883398382E00D
:1003300090E0DF91CF911F910F91FF90EF90DF90B0
:10034000CF90BF90AF909F908F907F906F905F9075
:100350004F9008952601370148015901AECF90E032
:1003600080E0E7CFFC0180912A06882311F13FB796
:10037000F89482E08093E9002091F200822F90E0CF
:100380001816190614F481E090E0882339F02898B3
:1003900044E6409329064091F1004083222339F03E
:1003A0002091F200211103C02BE62093E8003FBF0B
:1003B00008958FEF9FEF08953FB7F8948091250639
:1003C00090912606A0912706B091280626B5A89BF5
:1003D00005C02F3F19F00196A11DB11D3FBFBA2FD7
:1003E000A92F982F8827BC01CD01620F711D811D97
:1003F000911D42E0660F771F881F991F4A95D1F71C
:1004000008958F929F92AF92BF92CF92DF92EF9218
:10041000FF924B015C010E94DC016B017C010E9498
:10042000DC016C197D098E099F09683E73408105C6
:100430009105A8F321E0821A9108A108B10888EE7D
:10044000C80E83E0D81EE11CF11C81149104A104A4
:10045000B10429F7FF90EF90DF90CF90BF90AF905D
:100460009F908F900895409183055091840520912D
:1004700081053091820542175307B4F49091E8004A
:100480009570E1F39091E80092FD19C08093F1001E
:10049000809183059091840501968F739927892B0C
:1004A00019F48EEF8093E800809183059091840584
:1004B0000196909384058093830581E0089580E000
:1004C0000895EF92FF920F931F93CF93DF93F82E2F
:1004D000192FE62E042F81E0860F880F0E94330229
:1004E00083E00E943302CF2DD12FEC0EFD2EF11CA4
:1004F000CE15DF05B9F007FF13C0FE0184910E94FD
:100500003302182F80E00E9433028123219681114B
:10051000EFCFDF91CF911F910F91FF90EF90089552
:100520008881EDCF81E0F5CFDF92EF92FF920F93BC
:100530001F93CF93DF93D82E8A01EB017B01E40E4A
:10054000F51ECE15DF0559F0D7FE12C0FE018491CD
:100550000E94330221968111F4CF0FEF1FEFC801E3
:10056000DF91CF911F910F91FF90EF90DF90089551
:100570008881EECF2FB7F89487708093E90090912F
:10058000E800892F807295FF04C09091F20080E40A
:10059000891B2FBF08957F928F929F92AF92BF9237
:1005A000CF92DF92EF92FF920F931F93CF93DF933F
:1005B000C82E8B017A0180912A06811110C08FEF1D
:1005C0009FEFDF91CF911F910F91FF90EF90DF9000
:1005D000CF90BF90AF909F908F907F900895809123
:1005E000870580FF05C08091E00082608093E00075
:1005F000CE2DDF2DD12C8AEFB82E8C2D8770982E22
:100600008C2D8072882E8C2D8074782E9AE3A92EE2
:10061000209719F4DD2009F452C08C2D0E94BA02F3
:1006200081110AC0BA94BB2051F261E070E080E011
:1006300090E00E940102ECCF8C171D0611F00CF027
:100640008C2F9FB7F8949092E9002091E80025FD47
:1006500002C09FBFDDCF282F30E0C21BD30B882004
:1006600029F08150A0F01092F100FBCFF801C7FCF7
:100670000AC0815050F041914093F100FACF44916B
:100680004093F10031968150D0F7020F131FDD2007
:1006900021F0A092E800D12CDCCF8091E80085FD0C
:1006A00007C0A092E800DD24D394209791F2F3CF05
:1006B000209779F6772069F2A092E800CACF5D987A
:1006C00084E680938605C7017CCF615030F020918D
:1006D000F100FC0120830196F8CF289884E68093EE
:1006E000290608958091790581110DC082E08093DB
:1006F000750584E080937605109278051092770551
:1007000081E08093790585E795E008950F931F9325
:10071000CF93DF931F92CDB7DEB782E0898342E4A7
:1007200050E069E671E080E80E9494020E94720342
:10073000DC0112960D911C910115110589F0D8016B
:10074000ED91FC910280F381E02DBE016F5F7F4F40
:10075000C801099597FD04C0F80100851185ECCF0B
:1007600089810F90DF91CF911F910F910895CF93C1
:10077000DF93EC0180911201882331F083E00E9425
:10078000CB021816190634F081E090E09B838A832F
:1007900080E090E0DF91CF910895CF93DF931F9297
:1007A000CDB7DEB76983DC01ED91FC910280F38166
:1007B000E02D41E050E0BE016F5F7F4F09950F9043
:1007C000DF91CF91089583E08093E9008091F2005A
:1007D000882319F08AE38093E800089583E00E945B
:1007E000BA0290E00895CF93DF931F92CDB7DEB7A2
:1007F000FC018485958597FD08C02FEF3FEF358775
:1008000024870F90DF91CF910895CE0101960E9429
:10081000B201019719F4898190E0F3CF8FEF9FEF38
:10082000F0CF0F931F93CF93DF931F92CDB7DEB717
:100830008C01FC018485958597FF0BC0CE01019644
:100840000E94B201019771F4898190E0F8019587C7
:100850008487F801848595850F90DF91CF911F9152
:100860000F9108958FEF9FEFF1CFFC01848595855F
:1008700097FD0BC09FB7F89482E08093E9008091C8
:10088000F2009FBF90E0019608959FB7F89482E030
:100890008093E9008091F2009FBF90E00895DC0111
:1008A000FB0112962C9112978481958128171906C5
:1008B00041F491818081813A31F49D7F81E09130D2
:1008C00009F080E008958132E1F79B3029F48281BC
:1008D0001F968C9381E008959A3099F78281509603
:1008E0008C93F8CFDC01FB0188E4808389E4818369
:1008F00084E482831D969C911D979F709F5B9383D8
:100900001D968D919C9124E0969587952A95E1F707
:100910008F708F5B848385E00895EF92FF920F9331
:100920001F93CF93DF93FB012081213889F5238129
:10093000223271F5DC0112964C91248135814217E7
:10094000130631F58C01FC01C385D485F12CE12C13
:10095000209791F04C815D816A817B818E8181112C
:1009600080E80E9494028F3F980759F0E80EF91E24
:100970000990D881C02DECCF81E0D8011F968C93CF
:10098000C701DF91CF911F910F91FF90EF900895D4
:1009900090E080E0F6CFCF93DF93CDB7DEB76997D5
:1009A0000FB6F894DEBF0FBECDBFFC01DB018C910A
:1009B0008F5F8C939E012D5F3F4F8DE0D9011D927B
:1009C0008A95E9F729E0298384E08A8391E09D8371
:1009D00083E08E832A8721E22B879C879D879F87D0
:1009E00022E2288B27E02B8B25E02C8B8E8B20E4BA
:1009F00030E0388F2F8B998F82818B839585868508
:100A0000998B8A8B838180688D8B49E150E0BE0190
:100A10006F5F7F4F80E00E94940269960FB6F89452
:100A2000DEBF0FBECDBFDF91CF910895CF93DF938F
:100A300080916D05811167C081E08093600580938E
:100A4000610526E635E03093630520936205109238
:100A50006505109264052FE131E030935D05209328
:100A60005C05109268051092670510926A05109255
:100A7000690580936B0580936C0581EC8093660516
:100A80000E947203FC01818190916005482F490FFB
:100A90005527551F483051059CF5A281B381109709
:100AA00009F52CE535E033832283208120935E0510
:100AB00080935F0580916105820F8083209162059C
:100AC000A22FB09163058A2F821B8917C8F48181F8
:100AD0003D91C82FD0E0C050DF4F38838F5F8183B6
:100AE000F2CFD90118962D913C9119972115310516
:100AF000C1F72CE535E019963C932E931897D5CF86
:100B000081E080936D058CE595E0DF91CF910895AC
:100B10008F929F92AF92BF92CF92DF92EF92FF920D
:100B2000CF93DF93EC0188819981AA81BB818B34BB
:100B30009245A244B84409F0A7C08C819D810397D7
:100B400009F0A2C0CE80DF80E884F98420E030E0A4
:100B5000A901C701B6010E94121887FD95C020E0C7
:100B600030EC4FE754E4C701B6010E94F61A18169C
:100B70000CF48AC08A849B84AC84BD8420E030E07D
:100B8000A901C501B4010E94121887FD7DC020E0B3
:100B900030EC4FE754E4C501B4010E94F61A181670
:100BA0000CF472C0A5019401C701B6010E94E119BD
:100BB0009F7720E030E040EA50E40E94121887FD61
:100BC00063C0CE84DF84E888F98820E030E0A901A2
:100BD000C701B6010E94121887FD56C020E030E020
:100BE00048EC51E4C701B6010E94F61A18160CF43D
:100BF0004BC0CA88DB88EC88FD8820E030E0A90182
:100C0000C701B6010E94121887FD3EC020E030E007
:100C100048EC51E4C701B6010E94F61A1816A4F177
:100C2000CE88DF88E88CF98C2AE037ED43E25CE37C
:100C3000C701B6010E94121887FD26C020E030E0EF
:100C400040E85FE3C701B6010E94F61A1816E4F007
:100C5000CA8CDB8CEC8CFD8C2DEC3CEC4CE45EE324
:100C6000C701B6010E94121887FD0EC020E030E0D7
:100C700040EA50E4C701B6010E94F61A181624F0A3
:100C800081E09E8D923008F080E0DF91CF91FF905F
:100C9000EF90DF90CF90BF90AF909F908F9008958E
:100CA000EAE8F5E08BE492E5A2E4B8E4808391837E
:100CB000A283B38383E090E09583848388EF9BEDE8
:100CC000A2E7B4E486839783A087B1878FE295EB90
:100CD000ACE5B4E482879387A487B58780E090E091
:100CE000A0E0B0E486879787A08BB18B828B938B33
:100CF000A48BB58B4DEC5CEC6CE47EE3468B578BA0
:100D0000608F718F828F938FA48FB58F168E089509
:100D1000FC0101900020E9F73197AF01481B590B06
:100D2000BC018BE296E00C94B70389E391E00C944C
:100D300088068F929F92AF92BF920F931F93CF938B
:100D4000DF93CDB7DEB7A1970FB6F894DEBF0FBE25
:100D5000CDBF19A2423008F44AE08E010F5D1F4F4B
:100D6000842E912CB12CA12CA50194010E94B019C4
:100D7000E62FB901CA01EA30F4F4E05DD801EE9340
:100D80008D01232B242B252B79F790E080E0109701
:100D900019F0CD010E948806A1960FB6F894DEBF27
:100DA0000FBECDBFDF91CF911F910F91BF90AF903C
:100DB0009F908F900895E95CE1CFCF92DF92EF9200
:100DC000FF92CF93DF936C01990FEE08FF08F7FEB7
:100DD0001DC06DE28BE296E00E94CD03EC01662718
:100DE0007727CB016C197D098E099F094AE00E9483
:100DF0009906C80FD91F0E9495068C0F9D1FDF9181
:100E0000CF91FF90EF90DF90CF9008954AE0C70117
:100E1000B6010E949906EC01EECFCF93DF930E94BA
:100E20008806EC010E9495068C0F9D1FDF91CF91E3
:100E30000895009711F00C94880690E080E00895E2
:100E40008CE391E00E9419078DE491E00E9419075C
:100E500084E691E00E9419078BE691E00E94190751
:100E600087E791E00E94190782E891E00E94190744
:100E700086E891E00E9419074AE061E070E080E0B6
:100E800090E00E9499060C9495064F925F926F92A3
:100E90007F928F929F92AF92BF92CF92DF92EF920A
:100EA000FF920F931F93CF936B017C01742EAC01C3
:100EB0009B010E944B1B882399F081E991E0CF911F
:100EC0001F910F91FF90EF90DF90CF90BF90AF9068
:100ED0009F908F907F906F905F904F900C948806BA
:100EE00046015701E894B7F82FEF3FEF4FE75FE770
:100EF000C501B4010E944B1B81110DC02FEF3FEFC4
:100F00004FE75FE7C501B4010E94121818161CF4E0
:100F100085E991E0D4CF2FEF3FEF4FE75FE4C701C2
:100F2000B6010E94F61A18161CF489E991E0C7CFA1
:100F30002FEF3FEF4FE75FECC701B6010E94121899
:100F400087FDF3CF20E030E0A901C701B6010E9480
:100F5000121810E000E087FF0AC06DE28BE296E015
:100F60000E94CD038C01F7FAF094F7F8F094C0E0FA
:100F700060E070E080E09FE37C1641F020E030E02C
:100F800040E251E40E944E1ACF5FF6CFA7019601CE
:100F90000E94E2192B013C010E94C71A4B015C011F
:100FA0004AE00E9499067C01E00EF11ECC23C1F1BB
:100FB000C501B4010E9417189B01AC01C301B20125
:100FC0000E94E1194B015C016EE28BE296E00E9407
:100FD000CD03E80EF91EC15018F120E030E040E2E8
:100FE00051E4C501B4010E9478182B013C010E9414
:100FF000C71A4B01B12CA12C4AE0C501B4010E94D3
:101000009906E80EF91EC501B4010E9417189B014C
:10101000AC01C301B2010E94E1194B015C01DBCFBD
:10102000C701CF911F910F91FF90EF90DF90CF906C
:10103000BF90AF909F908F907F906F905F904F90F8
:101040000895CF93DF930E944507EC010E94950617
:101050008C0F9D1FDF91CF910895CF93DF9386E191
:1010600092E00E940D0784ED93E00E941907CAE800
:10107000D5E06E817F818885998543E050E00E94AC
:10108000210881EE93E00E9419076A857B858C8593
:101090009D8543E050E00E9421088DE991E00E9487
:1010A00019076E857F858889998942E050E00E9402
:1010B000210880EB91E00E9419076A897B898C895D
:1010C0009D8942E050E00E9421088FEB91E00E9450
:1010D00019076E897F89888D998D43E050E00E94C1
:1010E00021088AEC91E00E9419076A8D7B8D8C8D16
:1010F0009D8D43E050E00E94210881ED91E00E9427
:1011000019076E8D70E090E080E04AE00E94990639
:101110000E94950689ED91E00E941907809189054A
:1011200090E00E94DD0680EE91E0DF91CF910C947B
:101130000D07EF92FF920F931F93CF93DF937C01E4
:101140008C01D0E0C0E0CE010E943919F8018193F2
:101150008F012196CF31D105B1F7C701DF91CF9132
:101160001F910F91FF90EF9008954F925F926F92B1
:101170007F928F929F92AF92BF92CF92DF92EF9227
:10118000FF920F931F93CF93DF93CDB7DEB74DB68A
:101190005EB680910C072DB73EB7281B31090FB6FC
:1011A000F8943EBF0FBE2DBF8DB79EB701963C0190
:1011B0008090AF06912C8091AB069091AC06D30144
:1011C000FC019F01281B390B281539051CF42191BE
:1011D0002D93F7CF8091B006882359F18091A7060F
:1011E0009091A80628E097FD09C068E671E00E948A
:1011F000851C6DE270E00E94851C262F8091A90657
:101200009091AA0668E097FD08C068E671E00E9428
:10121000851C6DE270E00E94851CF301E80DF91D4C
:1012200090E1699FB0011124262B2083F4013196AF
:101230004F015301A80CB91CC090B706D090B80656
:10124000E090B906F090BA060091B3061091B4068A
:101250002091B5063091B60640917B0650917C06F0
:1012600060917D0670917E068091B10681700E942A
:101270004201880E991E5301A80CB91CC090BF06EC
:10128000D090C006E090C106F090C2060091BB0667
:101290001091BC062091BD063091BE0640917F069C
:1012A0005091800660918106709182068091B1060E
:1012B000869581700E944201880E991E5301A80CE8
:1012C000B91CC090C706D090C806E090C906F0903F
:1012D000CA060091C3061091C4062091C50630913C
:1012E000C6064091830650918406609185067091F0
:1012F00086068091B10682FB882780F90E94420110
:10130000880E991E5301A80CB91CC090CF06D0902E
:10131000D006E090D106F090D2060091CB06109155
:10132000CC062091CD063091CE0640918706509193
:1013300088066091890670918A068091B10683FBC8
:10134000882780F90E944201880E991E5301A80C3B
:10135000B91CC090D706D090D806E090D906F0907E
:10136000DA060091D3061091D4062091D50630916B
:10137000D60640918B0650918C0660918D06709137
:101380008E068091B106829581700E944201880E7E
:10139000991E5301A80CB91CC090DF06D090E0063E
:1013A000E090E106F090E2060091DB061091DC0689
:1013B0002091DD063091DE0640918F065091900617
:1013C00060919106709192068091B10685FB882705
:1013D00080F90E944201880E991E5301A80CB91C85
:1013E000C090E706D090E806E090E906F090EA06A3
:1013F0000091E3061091E4062091E5063091E6069F
:1014000040919706509198066091990670919A06BE
:101410008091B20681700E944201880E991E53018C
:10142000A80CB91CC090EF06D090F006E090F10631
:10143000F090F2060091EB061091EC062091ED067B
:101440003091EE0640919306509194066091950676
:10145000709196068091B206869581700E94420135
:10146000880E991E5301A80CB91CC090F706D090A5
:10147000F806E090F906F090FA060091F306109154
:10148000F4062091F5063091F60640919B065091A6
:101490009C0660919D0670919E068091B20682FB2B
:1014A000882780F90E944201880E991E5301A80CDA
:1014B000B91CC090FF06D0900007E0900107F090A3
:1014C00002070091FB061091FC062091FD06309169
:1014D000FE0640919F065091A0066091A106709172
:1014E000A2068091B20683FB882780F90E94420100
:1014F000880D991D5301A80EB91EC0900707D09002
:101500000807E0900907F0900A070091030710917F
:10151000040720910507309106074091A3065091DA
:10152000A4066091A5067091A6068091B2068295E8
:1015300081700E9442010E9416054C0140910C07E7
:1015400080910B0750E05A01FFEFAF1ABF0A2DB789
:101550003EB72A193B090FB6F8943EBF0FBE2DBF08
:101560000DB71EB70F5F1F4FEDB7FEB78183B301F5
:10157000C80101960E94D81DF4018381A501B8011C
:1015800080640E94CB020FB6F8945EBE0FBE4DBEC3
:10159000DF91CF911F910F91FF90EF90DF90CF904F
:1015A000BF90AF909F908F907F906F905F904F9083
:1015B0000895AF92BF92CF92DF92EF92FF920F9376
:1015C0001F93CF93DF93CDB7DEB76F970FB6F89425
:1015D000DEBF0FBECDBFE0910906EE2329F1F0E09A
:1015E000E755FA4F1082E9EAF5E08191882349F046
:1015F0009FE9980F9A31C8F7DF01119780528C93B9
:10160000F4CF6BEE71E089EA95E00E946D167C01E3
:10161000009741F06DEE71E00E94E11D892BA9F465
:101620000E942007109209066F960FB6F894DEBF4D
:101630000FBECDBFDF91CF911F910F91FF90EF9023
:10164000DF90CF90BF90AF90089566EF71E0C70133
:101650000E94E11D892B19F40E942D08E3CF6AEF47
:1016600071E0C7010E94E11D892BF9F4CE010196BA
:101670000E949908CE0101960E948805811105C03B
:1016800081E092E00E940D07CDCF8FE1FE013196FF
:10169000AAE8B5E001900D928A95E1F710928905CC
:1016A0008DE192E00E940D07D7CF68E372E0C70199
:1016B0000E94E11D892BB9F58AE895E00E94880512
:1016C000811103C08DE392E0DDCF8BE492E5A2E4CB
:1016D000B8E480938A0590938B05A0938C05B09312
:1016E0008D0583E090E090938F0580938E058AE8C6
:1016F000E82E85E0F82E10E000E0F701D1907F01A0
:10170000C8010E943919D81621F06D2DC8010E9418
:1017100041190F5F1F4F0F31110579F7109289059D
:1017200082E592E0AFCF64E672E0C7010E94E11D5E
:10173000892B09F051C00E94950689E692E00E942B
:101740000D078DEE91E00E940D0786EF91E00E945B
:101750000D078AEF91E00E940D0788E392E00E9456
:101760000D0781E195E00E940D0788E892E00E9454
:101770000D0785E992E00E940D078EE992E00E9434
:101780000D0781EB92E00E940D0780EC92E00E9431
:101790000D078CED92E00E940D0784EF92E00E940D
:1017A0000D0788E093E00E940D0788E193E00E9416
:1017B0000D0785E293E00E940D0782E393E00E940B
:1017C0000D078CE393E00E940D0787E493E00E94ED
:1017D0000D070E94950626CF61E175E0C7010E94C2
:1017E000E11D892B41F40E94500681E08093890518
:1017F00086E693E057CF69E773E0C7010E94E11DD9
:10180000892B21F56BEE71E090E080E00E946D166F
:101810008C01009719F480E893E034CF69E373E01A
:101820000E94E11D892B31F481E08093130187E947
:1018300093E028CF63E473E0C8010E94E11D892B87
:1018400051F71092130184EA93E01CCF62EB73E02E
:10185000C7010E94E11D892B09F05DC06BEE71E0AC
:1018600090E080E00E946D168C01009719F486EBE1
:1018700093E008CF68E074E00E94E11D892B21F518
:101880008091120690911306A0911406B09115064E
:101890008093900590939105A0939205B093930542
:1018A00081E08093890581ED93E00E9419076091A2
:1018B000900570919105809192059091930543E078
:1018C00050E00E942108AECE64E174E0C8010E949D
:1018D000E11D892B61F68091120690911306A0916B
:1018E0001406B09115068093940590939505A093E6
:1018F0009605B093970581E0809389058EED93E07E
:101900000E94190760919405709195058091960544
:1019100090919705D4CF65EF73E0C7010E94E11D58
:10192000892B09F033C16BEE71E090E080E00E94FA
:101930006D168C016BEE71E090E080E00E946D16F8
:101940005C010115110511F0009719F487EE93E081
:1019500099CE0E944B166B017C0168E074E0C801CF
:101960000E94E11D892B21F520E030E0A901C7018B
:10197000B6010E94121887FD0AC020E030EC4FE744
:1019800054E4C701B6010E94F61A18161CF489EF38
:1019900093E078CEC0929005D0929105E0929205A6
:1019A000F092930581E08093890585E094E06ACE0A
:1019B00064E174E0C8010E94E11D892B09F520E073
:1019C00030E0A901C701B6010E94121887FDDFCFE0
:1019D00020E030EC4FE754E4C701B6010E94F61A4C
:1019E0001816ACF2C0929405D0929505E092960537
:1019F000F092970581E08093890581E194E042CEE1
:101A000060E374E0C8010E94E11D892B21F520E00C
:101A100030E0A901C701B6010E94121887FD0AC073
:101A200020E030E048EC51E4C701B6010E94F61A0C
:101A300018161CF489E194E025CEC0929805D09246
:101A40009905E0929A05F0929B0581E080938905C3
:101A50008DE294E017CE65E474E0C8010E94E11DB8
:101A6000892B09F520E030E0A901C701B6010E94E9
:101A7000121887FDDFCF20E030E048EC51E4C701C9
:101A8000B6010E94F61A1816ACF2C0929C05D092CC
:101A90009D05E0929E05F0929F0581E08093890567
:101AA00082E494E0EFCD6FE674E0C8010E94E11D8E
:101AB000892B29F52AE037ED43E25CE3C701B60143
:101AC0000E94121887FD0AC020E030E040E85FE382
:101AD000C701B6010E94F61A18161CF483E594E0BB
:101AE000D1CDC092A005D092A105E092A205F092BE
:101AF000A30581E0809389058CE694E0C3CD65E978
:101B000074E0C8010E94E11D892B29F52DEC3CEC05
:101B10004CE45EE3C701B6010E94121887FD0AC0BB
:101B200020E030E040EA50E4C701B6010E94F61A16
:101B300018161CF489E794E0A5CDC092A405D092B4
:101B4000A505E092A605F092A70581E0809389059E
:101B500082E994E097CD6FEA74E0C8010E94E11D2C
:101B6000892B89F4C5010E944F168230910518F027
:101B70008BE994E087CD8093A80581E08093890567
:101B80008CEA94E07FCD86EB94E07CCD8EEC94E003
:101B900079CD4F925F926F927F928F929F92AF9288
:101BA000BF92CF92DF92EF92FF928090900590903B
:101BB0009105A0909205B0909305A50194016091C4
:101BC00094057091950580919605909197050E94D6
:101BD000E1196B017C019F772FE632E143E85AE37C
:101BE0000E94F61A18160CF0F4C0A5019401609139
:101BF00012067091130680911406909115060E94AA
:101C0000E119A70196010E944E1A6B017C0120E0A8
:101C100030E0A9010E94121887FDDBC020E030E00F
:101C200040E85FE3C701B6010E94F61A18160CF4EB
:101C3000D4C020E030E048EC52E460919805709107
:101C4000990580919A0590919B050E944E1A4B012F
:101C50005C0140909C0550909D0560909E057090A1
:101C60009F05AC019B01C701B6010E94121818160E
:101C70000CF0BAC020E030E048EC52E4C301B201FD
:101C80000E944E1A2B013C01AC019B0160E070E008
:101C900080E89FE30E94E119A70196010E941218B3
:101CA00018160CF0A5C0A501940160E070E080E872
:101CB0009FE30E94E119A30192010E94E1192B0107
:101CC0003C0120E030E0A9010E94F61A181664F4E5
:101CD000A5019401C701B6010E94E119A301920177
:101CE0000E944E1A6B017C0120E030E0A901C7017F
:101CF000B6010E94121887FD77C020E030E040E86E
:101D00005FE3C701B6010E94F61A18160CF470C002
:101D10002091A4053091A5054091A6055091A705F5
:101D2000C701B6010E94FB1A6B017C018091A805D6
:101D3000882351F0A701960160E070E080E89FE3FE
:101D40000E94E1196B017C0120E030E0A901C7018C
:101D5000B6010E94121887FD52C020E030E040E832
:101D60005FE3C701B6010E94F61A18160CF44BC0C7
:101D700020E030E048EC52E4C701B6010E94781838
:101D800060930E0670930F068093100690931106D1
:101D900020E030EC4FE754E4C701B6010E94781808
:101DA00020E030E040E05FE30E94E2190E94C01AA8
:101DB00070931F0660931E06FF90EF90DF90CF9008
:101DC000BF90AF909F908F907F906F905F904F905B
:101DD0000895C12CD12C76012CCFC12CD12C20E818
:101DE000E22E2FE3F22E25CFC12CD12C760190CFFD
:101DF000C12CD12C90E8E92E9FE3F92E89CFC12C7C
:101E0000D12C7601B5CFC12CD12C80E8E82E8FE300
:101E1000F82EAECF1F920F920FB60F9211242F9370
:101E20003F938F939F93AF93BF938091210690919F
:101E30002206A0912306B09124063091200623E0CB
:101E4000230F2D3758F50196A11DB11D20932006B3
:101E50008093210690932206A0932306B093240634
:101E60008091250690912606A0912706B09128061C
:101E70000196A11DB11D8093250690932606A0937F
:101E80002706B0932806BF91AF919F918F913F9104
:101E90002F910F900FBE0F901F90189526E8230FDB
:101EA0000296A11DB11DD2CF1F920F920FB60F92B5
:101EB00011248F939F938091E1009091E100937F93
:101EC0009093E10083FF0FC01092E90091E090939E
:101ED000EB001092EC0092E39093ED0010922A0632
:101EE00098E09093F00082FF22C093E09093E90085
:101EF0009091F200992319F09AE39093E800909161
:101F00008605992341F0909186059150909386051E
:101F1000911101C05D9A90912906992341F0909109
:101F20002906915090932906911101C0289A84FFA7
:101F300018C08091E2008E7E81608093E2008091E3
:101F4000E1008F7E8093E100809187058E7E806125
:101F5000809387059F918F910F900FBE0F901F90D8
:101F6000189580FFF7CF8091E2008E7E806180938C
:101F7000E2008091E1008E7E8093E10080918705F0
:101F80008E7E8160E5CF1F920F920FB60F921124C3
:101F9000CF92DF92EF92FF920F931F932F933F9375
:101FA0004F935F936F937F938F939F93AF93BF9361
:101FB000EF93FF93CF93DF93CDB7DEB76C97DEBF80
:101FC000CDBF1092E9008091E80083FF25C068E052
:101FD000CE0145960E94650382EF8093E8008D89CB
:101FE00087FF39C09091E80090FFFCCF982F907642
:101FF00009F034C19E894F89588D2F89F88C911131
:1020000031C0803861F5809188058093F10010928D
:10201000F1008EEF8093E8006C960FB6F894DEBF67
:102020000FBECDBFDF91CF91FF91EF91BF91AF91E7
:102030009F918F917F916F915F914F913F912F91E0
:102040001F910F91FF90EF90DF90CF900F900FBEF8
:102050000F901F9018959EEF9093E800C7CF1092B5
:10206000F100D5CF913059F48111D3CF41305105D2
:1020700081F6809188058D7F80938805CACF933043
:1020800049F48111C6CF4130510519F68091880578
:102090008260F2CF953041F48091E80080FFFCCF60
:1020A00020682093E300B5CF963009F0A9C00B8DCE
:1020B0001C8D22E01092E900109284051092830595
:1020C000F2122EC010928205109281050E948603A2
:1020D0001F8299E09983FA8291E09E8390EA988723
:1020E0009AEF99872091830530918405275F3F4FB0
:1020F0003C832B838D831092E9001092840510920B
:102100008305109382050093810549E050E0BE01EC
:102110006F5F7F4F80E00E9494020E94860379CF18
:1021200010938205009381050E947203DC011296D0
:102130000D911C910115110509F451C1D801ED91C2
:10214000FC910480F581E02DBE016B5E7F4FC801DC
:102150000995009709F03EC1F80100851185EACF85
:10216000F3E0FF120EC08F89882309F440C082304B
:1021700061F440E86CE08AEC91E00E946102811118
:1021800048CF81E28093EB0047CF813029F440E8CB
:1021900068E081EC91E0F1CF833099F70E947203FF
:1021A000DC011296ED90FC908E010F5F1F4F6801CD
:1021B000E114F10479F0D701ED91FC910680F781EB
:1021C000E02DB801C7010995080F111DF701E08442
:1021D000F184EECFD8011C92F60101900020E9F7BE
:1021E0003197BF016C197D0940E0C601C6CF6BEA8B
:1021F00071E0FB01449150E080E80E94940209CF15
:10220000973009F4BECF983021F481E08093F1003B
:1022100000CF993009F0FDCE837009F0B2CFE1E034
:10222000F1E081E031E096E32191222371F0809387
:10223000E9003093EB00DF0111972C912093EC0023
:102240009093ED008F5F873079F78EE78093EA00F7
:102250001092EA008F8980932A06DBCE8B8D9C8DAD
:102260001092E900109284051092830590938205E4
:1022700080938105898D811192C08E899D89913AC3
:1022800049F4813209F07DCF47E050E06BE071E026
:1022900080E0B3CF913209F074CF833269F48F8933
:1022A000988DB0E0A0E08093070190930801A0937F
:1022B0000901B0930A01ADCE803269F48091E80043
:1022C00082FFFCCF67E08BE091E00E9465038BEF1B
:1022D0008093E8009ECE823209F09BCE8F89809356
:1022E0001201EEEFFFE7859194918B3F9C4D51F1E8
:1022F000E0E0F8E080910B0190910C01A0910D01BC
:10230000B0910E01803B9440A105B105F1F480919C
:10231000120180FD1AC0EE3F8AE0F80789F587E7D1
:1023200097E791838083809160008093850588E1A1
:102330009BE00FB6F894A895809360000FBE909331
:10234000600067CEEEEFFAE0D5CF808191818737CC
:10235000974709F05ECEA8958091600088618093D0
:1023600060008091850580936000EE3F2AE0F207CF
:1023700089F08091FE0A9091FF0A9183808349CE73
:10238000808191818737980751F29093FF0A80935B
:10239000FE0AC5CF1092FF0A1092FE0A3ACE0E94A2
:1023A0007203DC0112960D911C910115110509F4BF
:1023B000E8CED801ED91FC910190F081E02DBE01B5
:1023C0006B5E7F4FC8010995811123CEF80100850E
:1023D0001185EBCF181619060CF41BCED2CEF1E006
:1023E000FF12BECE6FEA71E004CFEF92FF920F931F
:1023F0001F93CF93DF93CDB7DEB7C659D1090FB680
:10240000F894DEBF0FBECDBF10922E0610922D069F
:1024100088EE93E0A0E0B0E080932F069093300622
:10242000A0933106B09332068BE291E090932C0694
:1024300080932B068FEF9FEF90933806809337069B
:102440001092AC061092AB061092AF061092B30633
:102450001092B4061092B5061092B6068FEF93E074
:10246000A0E0B0E08093B7069093B806A093B906B9
:10247000B093BA061092BB061092BC061092BD062D
:102480001092BE068093BF069093C006A093C1062B
:10249000B093C2061092C3061092C4061092C506ED
:1024A0001092C6068093C7069093C806A093C906EB
:1024B000B093CA061092CB061092CC061092CD06AD
:1024C0001092CE068093CF069093D006A093D106AB
:1024D000B093D2061092D3061092D4061092D5066D
:1024E0001092D6068093D7069093D806A093D9066B
:1024F000B093DA061092DB061092DC061092DD062D
:102500001092DE068093DF069093E006A093E1062A
:10251000B093E2061092E3061092E4061092E506EC
:102520001092E6068093E7069093E806A093E906EA
:10253000B093EA061092EB061092EC061092ED06AC
:102540001092EE068093EF069093F006A093F106AA
:10255000B093F2061092F3061092F4061092F5066C
:102560001092F6068093F7069093F806A093F9066A
:10257000B093FA061092FB061092FC061092FD062C
:102580001092FE068093FF0690930007A093010728
:10259000B0930207109203071092040710920507E8
:1025A000109206078093070790930807A0930907E6
:1025B000B0930A0743E040930B071092AE061092C7
:1025C000B0061092B10688E08093B20695E0998338
:1025D00081E08A8329E02B839C8331EA3D838E83CB
:1025E00055E85F834887998792E09A8745E14B8752
:1025F0001C8647E24D874FEF4E874F87188A198A0E
:1026000045E74A8B40E14B8B45E94C8B8D8B3E8BEC
:102610001F8A288F85EC898F81E88A8F9B8F80ECB9
:102620008C8F8D8F8DE190E00E94B31C7C018DE139
:10263000FE013196D70101900D928A95E1F787E06E
:1026400090E00E94B31C8C01DC0111961C921E923A
:102650001396FC92EE9212978DE190E015969C9362
:102660008E93149716961C920E941605FC01A38562
:10267000B485109709F08CC01487038785859685EB
:10268000D80114962D913C91820F931F96878587D0
:1026900081E09091B006911101C080E09091AF0669
:1026A0009E5F890F80930C0710927B0610927C0628
:1026B00010927D0610927E0610927F061092800680
:1026C0001092810610928206109283061092840660
:1026D0001092850610928606109287061092880640
:1026E0001092890610928A0610928B0610928C0620
:1026F00010928D0610928E0610928F061092900600
:1027000010929106109292061092930610929406DF
:1027100010929506109296061092970610929806BF
:102720001092990610929A0610929B0610929C069F
:1027300010929D0610929E0610929F061092A0067F
:102740001092A1061092A2061092A3061092A4065F
:102750001092A5061092A6068FEF9FEF9093A80601
:102760008093A7069093AA068093A90690E080E044
:102770002091AF062817190699F094F0E091AB0666
:10278000F091AC06E80FF91F10820196F1CFDC0141
:102790008D919C9111970097D1F70D931C936ECF5B
:1027A000CA56DF4F0FB6F894DEBF0FBECDBFDF9124
:1027B000CF911F910F91FF90EF900895CF93DF93EA
:1027C000CDB7DEB76F970FB6F894DEBF0FBECDBFA3
:1027D000789484B5826084BD84B5816084BD85B5FC
:1027E000826085BD85B5816085BD80916E00816008
:1027F00080936E00109281008091810082608093AE
:1028000081008091810081608093810080918000AF
:10281000816080938000809191008260809391001C
:1028200080919100816080939100809190008160FF
:10283000809390008091C10084608093C10080915A
:10284000C10082608093C1008091C100816080934B
:10285000C1008091C30081608093C3008091C0005B
:1028600082608093C0008091C20081608093C2002A
:1028700080917A00846080937A0080917A008260EF
:1028800080937A0080917A00816080937A008091B1
:102890007A00806880937A0010922A061092880548
:1028A000109287058091D70081608093D70080EADD
:1028B0008093D80089B5806189BD89B5826089BD62
:1028C00009B400FEFDCF61E070E080E090E00E947E
:1028D00001028091D8008F7C80618093D800809124
:1028E000E000807F8093E0008091E1008E7E809305
:1028F000E1008DE08093E200559A209A8FEF9FEFE0
:10290000909338068093370683E08093140164EF38
:1029100071E080E090E00E94010200E210E00E947D
:102920001D0101501109D9F7CE0101960E949908A5
:10293000CE0101960E948805882309F4FDC08FE12D
:10294000FE013196AAE8B5E001900D928A95E1F773
:102950001092890584EE94E00E940D0700E810E0D3
:10296000C12CD12C76010E941D01092E000CAA0B4E
:10297000BB0BC80ED91EEA1EFB1E0150110999F7A8
:10298000C701B6010E94191820E030E040E05CE386
:102990000E947818609312067093130680931406B1
:1029A0009093150660931606709317068093180689
:1029B000909319060E94C90D1092FB061092FC0616
:1029C0001092FD061092FE068FEF93E0A0E0B0E0BB
:1029D0008093FF0690930007A0930107B09302072E
:1029E0001092AD060E94B50880911E0690911F06B8
:1029F000092E000CAA0BBB0B80939F069093A00698
:102A0000A093A106B093A2068091AD0681110E9409
:102A1000B5080E94B5080E9495068AE195E00E94DB
:102A20000D070E9420070E942D0800E010E080E2C0
:102A3000A82EB12CC12CD12C76010E941D01092E8B
:102A4000000CAA0BBB0BC80ED91EEA1EFB1E81E0B0
:102A5000A81AB10891F7C701B6010E94191820E021
:102A600030E040E05DE30E947818609316067093B2
:102A700017068093180690931906C0901206D090FE
:102A80001306E0901406F0901506A70196010E9427
:102A9000E1192091A0053091A1054091A205509126
:102AA000A3050E947818A70196010E94E21960937D
:102AB00012067093130680931406909315060E94D5
:102AC000C90D80911E0690911F06092E000CAA0BBD
:102AD000BB0B80939F069093A006A093A106B09392
:102AE000A2068091AD0681110E94B5080E94B5082A
:102AF0008BE296E00E943504892B99F18BE296E0F7
:102B00000E94F3039FB7F89440912106509122064A
:102B100060912306709124069FBF40930A0650934C
:102B20000B0660930C0670930D068A3011F08D3001
:102B300059F40E94D90ADCCF0E94500681E08093AC
:102B400089058EEF94E008CFE0910906EF3580F615
:102B500091E09E0F90930906F0E0E755FA4F8083CD
:102B6000C7CF809109068823F1F02FB7F8948091A0
:102B7000210690912206A0912306B09124062FBF32
:102B800040910A0650910B0660910C0670910D065B
:102B9000841B950BA60BB70B8B3F9105A105B105C7
:102BA00010F00E94D90A80911301882309F466C0AD
:102BB0002FB7F8948091210690912206A0912306C8
:102BC000B09124062FBF40911A0650911B066091C8
:102BD0001C0670911D06841B950BA60BB70BC297A4
:102BE000A105B10508F44AC02FB7F89480912106D9
:102BF00090912206A0912306B09124062FBF8093C6
:102C00001A0690931B06A0931C06B0931D0687E33B
:102C100095E00E9419076091160670911706809141
:102C200018069091190643E00E94450781E495E05B
:102C30000E94190760911206709113068091140684
:102C40009091150643E00E9445078CE495E00E94B0
:102C5000190760910E0670910F06809110069091F1
:102C6000110642E00E94450786E595E00E9419079B
:102C700080911E0690911F060E94DD0662E070E0C2
:102C800080E090E00E9401020115110509F4CFCE09
:102C90000E940000CCCE662777270C94A116FC0179
:102CA00088279927E89421912032E9F3293010F000
:102CB0002E30C8F32B3241F02D3239F4689404C021
:102CC0000E949916820F911D219120532A30C0F342
:102CD0001EF4909581959F4F08954DE057E00E9416
:102CE00072160895FA01A191B081009719F4109716
:102CF000E1F0CD01DC01CD010D90002011F4C00107
:102D000013C0FB012191222319F02015D9F7F3CF2D
:102D1000FB012191201519F41E92119606C0222361
:102D2000C1F70D900020A1F7D001FA01A193B08363
:102D300008957AE0979F902D879F802D910D112403
:102D40000895B0E0A0E0E7EAF6E10C947F195C0199
:102D50007B016115710519F0DB018D939C93850151
:102D60000F5F1F4FF501D0818D2F90E00E94F1176A
:102D70006C01892BB9F5DD32B9F50F5F1F4FD50115
:102D80001196DC91C1E05801F1E0AF1AB10843E0BF
:102D900050E066E371E0C5010E94FA17892B69F5DE
:102DA000680182E0C80ED11C45E050E061E371E0AB
:102DB000C6010E94FA17892B21F4680197E0C90E19
:102DC000D11CE114F10419F0D701CD92DC9260E03E
:102DD00070E080E89FEFC111FFC060E070E080E824
:102DE0009FE7FAC05801BBCFDB3229F485010E5FA3
:102DF0001F4FF501D181C0E0C6CF43E050E06EE245
:102E000071E0C5010E94FA17892BE9F0F80110E082
:102E100000E020E030E0A9015F01B0ED8B2E8D0EC7
:102E200089E08815C8F19C2E689491F88C2F8870E1
:102E3000C2FF16C0811102C00F5F1F4F3196D5012E
:102E4000DC91C92DE9CFE114F10429F00E5F1F4F89
:102E5000F7011183008360E070E080EC9FE7BCC065
:102E6000882311F001501109A5E0B0E00E946E190D
:102E70009B01AC01220F331F441F551F280D311D2C
:102E8000411D511D283999E93907490799E1590729
:102E9000A8F2C6609C2ED2CFAEEF8A1206C0C3FD48
:102EA0003CC09C2E689493F8C9CFDF7DD534A9F53A
:102EB00080818D3239F4C061DF011296818162E038
:102EC00070E006C0DF018B32C1F3119661E070E063
:102ED00080535D01A61AB70A8A30F8F4E0E8CE16EE
:102EE000ECE0DE065CF4B601660F771F660F771F15
:102EF000C60ED71ECC0CDD1CC80ED11C5D01FFEF29
:102F0000AF1ABF0A8C9180538A30A8F1C4FF03C066
:102F1000D194C194D1080C0D1D1DC1FF09C0E1144D
:102F2000F10431F081E0A81AB108D701AD92BC924A
:102F3000CA01B9010E941718C370C33009F4905830
:102F40004B015C0120E030E0A9010E9412188823A7
:102F500009F440C0C5E6D1E017FF05C01195019501
:102F60001109CDE4D1E06E01B8E1CB1AD10880E2BD
:102F7000E82EF12C0FC0D501B1CFFE01259135917E
:102F8000459154910E191F09C501B4010E9478188A
:102F90004B015C01D501C4010E151F0574F7249780
:102FA000F594E794CC16DD06A9F78A2F880F8B2FAE
:102FB000881F8F3F49F020E030E0A901C501B4012E
:102FC0000E941218811106C082E290E090931007CF
:102FD00080930F07C501B401CDB7DEB7ECE00C94C8
:102FE0009B1991110C94E518803219F08950855085
:102FF000C8F70895FB01DC014150504088F08D91E5
:1030000081341CF08B350CF4805E659161341CF0CA
:103010006B350CF4605E861B611171F3990B08959A
:10302000881BFCCF0E94541808F481E00895E894AE
:1030300009C097FB3EF490958095709561957F4F00
:103040008F4F9F4F9923A9F0F92F96E9BB279395AE
:10305000F695879577956795B795F111F8CFFAF4BE
:10306000BB0F11F460FF1BC06F5F7F4F8F4F9F4FEF
:1030700016C0882311F096E911C0772321F09EE84D
:10308000872F762F05C0662371F096E8862F70E0B3
:1030900060E02AF09A95660F771F881FDAF7880F8D
:1030A0009695879597F90895990F0008550FAA0BE3
:1030B000E0E8FEEF16161706E807F907C0F012164B
:1030C0001306E407F50798F0621B730B840B950B4E
:1030D00039F40A2661F0232B242B252B21F40895A3
:1030E0000A2609F4A140A6958FEF811D811D089540
:1030F0000E948B180C94FF180E94F11838F00E945F
:10310000F81820F0952311F00C94E8180C94EE18A0
:1031100011240C9433190E94101970F3959FC1F378
:10312000950F50E0551F629FF001729FBB27F00D75
:10313000B11D639FAA27F00DB11DAA1F649F6627CA
:10314000B00DA11D661F829F2227B00DA11D621F19
:10315000739FB00DA11D621F839FA00D611D221FD3
:10316000749F3327A00D611D231F849F600D211DB7
:10317000822F762F6A2F11249F5750409AF0F1F03A
:1031800088234AF0EE0FFF1FBB1F661F771F881FA3
:1031900091505040A9F79E3F510580F00C94E818DB
:1031A0000C9433195F3FE4F3983ED4F386957795FA
:1031B0006795B795F795E7959F5FC1F7FE2B880F49
:1031C000911D9695879597F90895992788270895D1
:1031D00097F99F6780E870E060E008959FEF80ECCA
:1031E000089500240A94161617061806090608956D
:1031F00000240A9412161306140605060895092ED3
:103200000394000C11F4882352F0BB0F40F4BF2B41
:1032100011F460FF04C06F5F7F4F8F4F9F4F089581
:1032200057FD9058440F551F59F05F3F71F0479577
:10323000880F97FB991F61F09F3F79F0879508955C
:10324000121613061406551FF2CF4695F1DF08C07B
:10325000161617061806991FF1CF86957105610598
:1032600008940895E894BB2766277727CB0197F940
:103270000895F999FECF92BD81BDF89A992780B53E
:103280000895262FF999FECF1FBA92BD81BD20BDAA
:103290000FB6F894FA9AF99A0FBE01960895052E82
:1032A00097FB1EF400940E94661957FD07D00E94F8
:1032B000B01907FC03D04EF40C9466195095409554
:1032C000309521953F4F4F4F5F4F089590958095D2
:1032D000709561957F4F8F4F9F4F08950E94D2192F
:1032E000A59F900DB49F900DA49F800D911D11245A
:1032F00008952F923F924F925F926F927F928F929A
:103300009F92AF92BF92CF92DF92EF92FF920F9374
:103310001F93CF93DF93CDB7DEB7CA1BDB0B0FB67E
:10332000F894DEBF0FBECDBF09942A88398848883B
:103330005F846E847D848C849B84AA84B984C884D1
:10334000DF80EE80FD800C811B81AA81B981CE0FC8
:10335000D11D0FB6F894DEBF0FBECDBFED010895AD
:10336000A1E21A2EAA1BBB1BFD010DC0AA1FBB1F89
:10337000EE1FFF1FA217B307E407F50720F0A21BFB
:10338000B30BE40BF50B661F771F881F991F1A9468
:1033900069F760957095809590959B01AC01BD0192
:1033A000CF010895A29FB001B39FC001A39F700DEC
:1033B000811D1124911DB29F700D811D1124911D3D
:1033C00008955058BB27AA270E94F9190C94FF189A
:1033D0000E94F11838F00E94F81820F039F49F3F4D
:1033E00019F426F40C94EE180EF4E095E7FB0C9417
:1033F000E818E92F0E94101958F3BA1762077307EB
:103400008407950720F079F4A6F50C9432190EF490
:10341000E0950B2EBA2FA02D0B01B90190010C01E4
:10342000CA01A0011124FF27591B99F0593F50F4FC
:10343000503E68F11A16F040A22F232F342F442754
:10344000585FF3CF469537952795A795F04053954C
:10345000C9F77EF41F16BA0B620B730B840BBAF01C
:103460009150A1F0FF0FBB1F661F771F881FC2F787
:103470000EC0BA0F621F731F841F48F4879577959B
:103480006795B795F7959E3F08F0B0CF9395880F55
:1034900008F09927EE0F9795879508950E94621A74
:1034A0000C94FF180E94F81858F00E94F11840F090
:1034B00029F45F3F29F00C94E81851110C9433194A
:1034C0000C94EE180E94101968F39923B1F3552358
:1034D00091F3951B550BBB27AA2762177307840727
:1034E00038F09F5F5F4F220F331F441FAA1FA9F3BD
:1034F00035D00E2E3AF0E0E832D091505040E695AB
:10350000001CCAF72BD0FE2F29D0660F771F881F0B
:10351000BB1F261737074807AB07B0E809F0BB0BFE
:10352000802DBF01FF2793585F4F3AF09E3F510512
:1035300078F00C94E8180C9433195F3FE4F3983E4C
:10354000D4F3869577956795B795F7959F5FC9F7FB
:10355000880F911D9695879597F90895E1E0660F7C
:10356000771F881FBB1F621773078407BA0720F0F5
:10357000621B730B840BBA0BEE1F88F7E09508955E
:103580000E94C71A6894B1110C94331908950E94CF
:10359000181988F09F5798F0B92F9927B751B0F0B4
:1035A000E1F0660F771F881F991F1AF0BA95C9F7C7
:1035B00014C0B13091F00E943219B1E008950C941A
:1035C0003219672F782F8827B85F39F0B93FCCF3CD
:1035D000869577956795B395D9F73EF49095809544
:1035E000709561957F4F8F4F9F4F08950E9454189B
:1035F00008F48FEF0895FA01EE0FFF1F30962105B2
:103600003105A1F16115710561F48038BFE39B07B5
:1036100049F168949038810561F08038BFEF9B07CD
:1036200041F099234AF5FF3FE1053105210519F1E4
:10363000E8940894E795D901AA2329F4AB2FBE2F6B
:10364000F85FD0F310C0FF5F70F4A695E0F7F7398C
:1036500050F019F0FF3A38F49F779F930DD00F90F8
:1036600007FC9058089546F00C94EE1860E070E066
:1036700080E89FE308954FE79F775F934F933F93D1
:103680002F930E94FB1B2F913F914F915F910E94BE
:1036900078180C94581B0E945418880B990B0895A5
:1036A00029F416F00C94E8180C9432190C94EE18C6
:1036B0000E941819A8F39638A0F707F80F92E8941B
:1036C0002BE33AEA48EB5FE70E948E180F920F92C5
:1036D0000F924DB75EB70F920E94431CECEAF0E0E8
:1036E0000E948A1B4F915F91EF91FF91E595EE1F2C
:1036F000FF1F49F0FE57E0684427EE0F441FFA957C
:10370000E1F74195550B0E94BD1B0F9007FE0C94ED
:10371000B11B0895DF93CF931F930F93FF92EF9206
:10372000DF927B018C01689406C0DA2EEF010E94C3
:103730008B18FE01E894A5912591359145915591FD
:10374000A6F3EF010E94F919FE019701A801DA948E
:1037500069F7DF90EF90FF900F911F91CF91DF916C
:1037600008959B01AC0160E070E080E89FE30C9459
:103770004E1A0C94E8180C94771C0E941819D8F370
:103780009923C9F3940F511DA3F39150504094F025
:1037900059F0882332F0660F771F881F91505040F0
:1037A000C1F79E3F51052CF7880F911D969587957F
:1037B00097F908955F3FACF0983E9CF0BB27869543
:1037C00077956795B79508F4B1609395C1F7BB0FEE
:1037D00058F711F460FFE8CF6F5F7F4F8F4F9F4F17
:1037E000E3CF0C94331916F00C94771C0C94EE185C
:1037F00068940C94E8180E941819A8F39923C1F34F
:10380000AEF3DF93CF931F930F93FF92C92FDD2762
:1038100088232AF02197660F771F881FDAF720E0A8
:1038200030E040E85FEB9FE3883920F0803E38F0DD
:1038300021968F770E94E219E4EDF0E004C00E9427
:10384000E219E1E0F1E00E948A1B8B01BE01EC016C
:10385000FB2E6F5771097595771F880B990B0E9486
:10386000191828E132E741E35FE30E948B18AF2D7E
:103870009801AE01FF900F911F91CF91DF910E94AF
:10388000F9190C94FF18FA01DC01AA0FBB1F9B0168
:10389000AC01BF5728F4222733274427507820C093
:1038A000B75190F4AB2F0024469537952795011C0E
:1038B000A395D2F3002071F0220F331F441FB3955C
:1038C000DAF30ED00C94E11961307105A0E88A0793
:1038D000B94630F49B01AC0166277727882790789A
:1038E000309621F0208331834283538308959F3F94
:1038F00031F0915020F4879577956795B795880FAB
:10390000911D9695879597F9089597FB072E16F4C4
:10391000009407D077FD09D00E94991C07FC05D0C0
:103920003EF4909581959F4F0895709561957F4FD6
:103930000895AA1BBB1B51E107C0AA1FBB1FA617F6
:10394000B70710F0A61BB70B881F991F5A95A9F748
:1039500080959095BC01CD010895EE0FFF1F059055
:10396000F491E02D09940F931F93CF93DF9382304E
:10397000910510F482E090E0E0911307F0911407B4
:1039800030E020E0B0E0A0E0309799F42115310557
:1039900009F44AC0281B390B24303105D8F58A8137
:1039A0009B816115710589F1FB0193838283FE017F
:1039B00011C0408151810281138148175907E0F0FD
:1039C0004817590799F4109761F012960C931297C3
:1039D00013961C933296CF01DF91CF911F910F91D7
:1039E00008950093130710931407F4CF21153105A0
:1039F00051F04217530738F0A901DB019A01BD01CC
:103A0000DF01F801C1CFEF01F9CF90931407809344
:103A10001307CDCFFE01E20FF31F81939193225044
:103A2000310939832883D7CF2091110730911207AC
:103A3000232B41F420911701309118013093120784
:103A400020931107209115013091160121153105A0
:103A500041F42DB73EB74091190150911A01241B32
:103A6000350BE0911107F0911207E217F307A0F46C
:103A70002E1B3F0B2817390778F0AC014E5F5F4FC4
:103A80002417350748F04E0F5F1F509312074093DD
:103A90001107819391939FCFF0E0E0E09CCFCF930B
:103AA000DF930097E9F0FC01329713821282A09114
:103AB0001307B0911407ED0130E020E01097A1F456
:103AC00020813181820F931F2091110730911207BD
:103AD0002817390709F061C0F0931207E093110726
:103AE000DF91CF910895EA01CE17DF07E8F54A810B
:103AF0005B819E0141155105B1F7E901FB83EA8322
:103B000049915991C40FD51FEC17FD0761F48081CD
:103B100091810296840F951FE901998388838281A0
:103B200093819B838A83F0E0E0E012968D919C91D3
:103B300013970097B9F52D913C911197CD010296FD
:103B4000820F931F20911107309112072817390710
:103B500039F6309751F51092140710921307B0936D
:103B60001207A0931107BCCFD383C2834081518138
:103B7000840F951FC817D90761F44E5F5F4F888186
:103B80009981480F591F518340838A819B81938378
:103B900082832115310509F0B0CFF0931407E0932B
:103BA00013079ECFFD01DC01C0CF13821282D7CF55
:103BB000FB01DC0102C001900D9241505040D8F74A
:103BC0000895FB01DC018D91019080190110D9F35A
:083BD000990B0895F894FFCF52
:103BD80000C18081000000FFFFFFFF00E10000003E
:103BE8000000000101000015078000000000004FE0
:103BF80004CB048D04720400000000CD03B703EE6B
:103C080003E3033504F30311040D0A004944454E48
:103C180054495459204445564943453D00454C565E
:103C2800494E5F47414D494E475F48414E444252D5
:103C3800414B450020415554483D004547485F5594
:103C48004E49545F563100204649524D574152451E
:103C58003D00312E35002050524F544F434F4C3DBC
:103C6800006E616E00696E66006F766600444541BD
:103C7800445A4F4E455F52454C45415345443D00DB
:103C8800444541445A4F4E455F46554C4C3D0053C0
:103C98004D4F4F5448494E473D0043555256453DB8
:103CA80000494E564552543D0044495254593D002E
:103CB800454E445F434F4E4649470020004944451E
:103CC8004E54494659004745540052454C4F4144CB
:103CD800004552524F52204E4F5F56414C49445F67
:103CE80053415645445F434F4E464947004F4B208A
:103CF80053415645445F53455454494E47535F52C8
:103D0800454C4F41444544005341564500455252A5
:103D18004F5220434F4E4649475F494E56414C4902
:103D280044004F4B2053455454494E47535F534129
:103D38005645440048454C50003D3D3D20454C56B5
:103D4800494E2047414D494E472048414E44425232
:103D5800414B45203D3D3D0043414C2052454C459B
:103D6800415345440043414C2046554C4C00534573
:103D7800542052454C45415345442076616C756545
:103D8800005345542046554C4C2076616C756500AF
:103D980053455420444541445A4F4E455F52454C83
:103DA80045415345442076616C7565005345542060
:103DB800444541445A4F4E455F46554C4C20766128
:103DC8006C75650053455420534D4F4F5448494E28
:103DD800472076616C75650053455420435552560B
:103DE800452076616C75650053455420494E56450B
:103DF800525420300053455420494E5645525420C1
:103E0800310053545245414D204F4E0053545245B2
:103E1800414D204F4646003D3D3D3D3D3D3D3D3DEC
:103E28003D3D3D3D3D3D3D3D3D3D3D3D3D3D3D3DBA
:103E38003D3D3D3D3D004F4B2044454641554C548A
:103E4800535F4C4F414445440053545245414D0043
:103E58004552524F522053545245414D5F4F4E5F89
:103E68004F525F4F4646004F4B2053545245414DE9
:103E78005F4F4E004F4B2053545245414D5F4F46C4
:103E8800460043414C004552524F522043414C5F3B
:103E980052454C45415345445F4F525F46554C4C43
:103EA800004F4B2052454C45415345443D004F4B34
:103EB8002046554C4C3D004552524F5220494E56D3
:103EC800414C49445F534554004552524F52205289
:103ED800414E4745004F4B2052454C4541534544C0
:103EE800004F4B2046554C4C004552524F522052E1
:103EF800414E47455F305F544F5F3235004F4B208E
:103F0800444541445A4F4E455F52454C45415345FF
:103F180044004F4B20444541445A4F4E455F465557
:103F28004C4C004552524F522052414E47455F304B
:103F38002E30315F544F5F312E3030004F4B2053BD
:103F48004D4F4F5448494E47004552524F52205208
:103F5800414E47455F302E32305F544F5F352E302B
:103F680030004F4B204355525645004552524F5250
:103F7800205553455F305F4F525F31004F4B20490A
:103F88004E56455254004552524F5220554E4B4EB4
:103F98004F574E5F504152414D455445520045528E
:103FA800524F5220554E4B4E4F574E5F434F4D4D3B
:103FB800414E4400494E464F20434F4E4649475FC5
:103FC800534F555243453D454550524F4D00494E7C
:103FD800464F20434F4E4649475F534F555243453E
:103FE8003D44454641554C545300454C56494E2096
:103FF80047414D494E472048414E444252414B4566
:10400800205245414459004C495645205241573D9C
:10401800002046494C54455245443D0020504552E5
:0C40280043454E543D00205553423D00DE
:00000001FF
